:100000000C945A000C9464000C9464000C946400EA
:100010000C9464000C9464000C9464000C946400D0
:100020000C9464000C9464000C9464000C946400C0
:100030000C9464000C9464000C9464000C946400B0
:100040000C9464000C9464000C9464000C946400A0
:100050000C9464000C9464000C9464000C94640090
:100060000C9464000C9464000C9464000C94640080
:100070000C9464000C9464000C9464000C94640070
:100080000C9464000C9464000C9464000C94640060
:100090000C9464000C9464000C9464000C94640050
:1000A0000C9464000C9464000C9464000C94640040
:1000B0000C94640011241FBECFEFD8E0DEBFCDBF8B
:1000C0000E94DB000C9415010C94000028E030E045
:1000D00090E8482F492399F0289A0000000000007A
:1000E0000000000000000000000000002898000050
:1000F00000000000000000000000000012C0289A6C
:10010000000000000000289800000000000000002F
:1001100000000000000000000000000000000000DF
:100120000000969521503109A1F608951F93CF93B1
:10013000DF93182FD62FC42F0E9466008D2F0E94A8
:1001400066008C2F0E94660087EC90E00197F1F723
:1001500000C00000812F0E9466008D2F0E94660063
:100160008C2F0E94660087EC90E00197F1F700C0A9
:100170000000812F0E9466008D2F0E9466008C2F48
:100180000E94660087EC90E00197F1F700C0000044
:10019000812F0E9466008D2F0E9466008C2F0E9486
:1001A000660087EC90E00197F1F700C00000DF9156
:1001B000CF911F910895209A40E06FEF80E00E9458
:1001C00096002FEF89E698E1215080409040E1F7BA
:1001D00000C0000040E060E08FEF0E9496002FEF2B
:1001E00089E698E1215080409040E1F700C000008E
:1001F0004FEF60E080E00E9496002FEF89E698E1E3
:10020000215080409040E1F700C000004FEF6FEFB9
:100210008FEF0E9496002FEF89E698E121508040F1
:0E0220009040E1F700C00000C7CFF894FFCF78
:00000001FF
